{
  "contractName": "Slots",
  "abi": [
    {
      "inputs": [],
      "stateMutability": "nonpayable",
      "type": "constructor"
    },
    {
      "inputs": [],
      "name": "minValue",
      "outputs": [
        {
          "internalType": "uint256",
          "name": "",
          "type": "uint256"
        }
      ],
      "stateMutability": "view",
      "type": "function",
      "constant": true
    },
    {
      "inputs": [],
      "name": "slotsBalance",
      "outputs": [
        {
          "internalType": "uint256",
          "name": "",
          "type": "uint256"
        }
      ],
      "stateMutability": "view",
      "type": "function",
      "constant": true
    },
    {
      "inputs": [
        {
          "internalType": "uint256",
          "name": "newMinValue",
          "type": "uint256"
        }
      ],
      "name": "changeMinValue",
      "outputs": [],
      "stateMutability": "nonpayable",
      "type": "function"
    },
    {
      "inputs": [],
      "name": "deposit",
      "outputs": [],
      "stateMutability": "payable",
      "type": "function",
      "payable": true
    },
    {
      "inputs": [],
      "name": "getBalanceSlots",
      "outputs": [
        {
          "internalType": "uint256",
          "name": "",
          "type": "uint256"
        }
      ],
      "stateMutability": "view",
      "type": "function",
      "constant": true
    },
    {
      "inputs": [],
      "name": "getPlayerBalance",
      "outputs": [
        {
          "internalType": "uint256",
          "name": "",
          "type": "uint256"
        }
      ],
      "stateMutability": "view",
      "type": "function",
      "constant": true
    },
    {
      "inputs": [],
      "name": "getLastPlayerGame",
      "outputs": [
        {
          "internalType": "uint256",
          "name": "",
          "type": "uint256"
        },
        {
          "internalType": "uint256",
          "name": "",
          "type": "uint256"
        },
        {
          "internalType": "uint256",
          "name": "",
          "type": "uint256"
        },
        {
          "internalType": "uint256",
          "name": "",
          "type": "uint256"
        }
      ],
      "stateMutability": "view",
      "type": "function",
      "constant": true
    },
    {
      "inputs": [],
      "name": "roll",
      "outputs": [],
      "stateMutability": "payable",
      "type": "function",
      "payable": true
    },
    {
      "inputs": [
        {
          "internalType": "uint256",
          "name": "amount",
          "type": "uint256"
        }
      ],
      "name": "withdraw",
      "outputs": [],
      "stateMutability": "nonpayable",
      "type": "function"
    }
  ],
  "bytecode": "0x608060405266038d7ea4c680006001556006600255600060035534801561002557600080fd5b5033600660006101000a81548173ffffffffffffffffffffffffffffffffffffffff021916908373ffffffffffffffffffffffffffffffffffffffff160217905550610d18806100766000396000f3fe6080604052600436106100865760003560e01c8063963e63c711610059578063963e63c714610133578063cd5e3c5d1461015e578063d0e30db014610168578063d9a4802e14610172578063d9fa844a146101a057610086565b80630b01517c1461008b57806323f52256146100b65780632e1a7d4d146100e1578063456cae181461010a575b600080fd5b34801561009757600080fd5b506100a06101cb565b6040516100ad91906109aa565b60405180910390f35b3480156100c257600080fd5b506100cb610212565b6040516100d891906109aa565b60405180910390f35b3480156100ed57600080fd5b50610108600480360381019061010391906109f6565b61021b565b005b34801561011657600080fd5b50610131600480360381019061012c91906109f6565b61031f565b005b34801561013f57600080fd5b50610148610396565b60405161015591906109aa565b60405180910390f35b61016661039c565b005b610170610561565b005b34801561017e57600080fd5b506101876105d5565b6040516101979493929190610a23565b60405180910390f35b3480156101ac57600080fd5b506101b56107c9565b6040516101c291906109aa565b60405180910390f35b6000600460003373ffffffffffffffffffffffffffffffffffffffff1673ffffffffffffffffffffffffffffffffffffffff16815260200190815260200160002054905090565b60008054905090565b80600460003373ffffffffffffffffffffffffffffffffffffffff1673ffffffffffffffffffffffffffffffffffffffff16815260200190815260200160002054101561026757600080fd5b80600460003373ffffffffffffffffffffffffffffffffffffffff1673ffffffffffffffffffffffffffffffffffffffff16815260200190815260200160002060008282546102b69190610a97565b92505081905550806000808282546102ce9190610a97565b925050819055503373ffffffffffffffffffffffffffffffffffffffff166108fc829081150290604051600060405180830381858888f1935050505015801561031b573d6000803e3d6000fd5b5050565b600660009054906101000a900473ffffffffffffffffffffffffffffffffffffffff1673ffffffffffffffffffffffffffffffffffffffff163373ffffffffffffffffffffffffffffffffffffffff161461037957600080fd5b670de0b6b3a76400008161038d9190610acb565b60018190555050565b60015481565b3460015410156103ab57600080fd5b60006103b56107cf565b90506001600360008282546103ca9190610b25565b9250508190555060006103db6107cf565b90506001600360008282546103f09190610b25565b9250508190555060006104016107cf565b90506001600360008282546104169190610b25565b92505081905550600061042a848484610813565b90506000810361045157346000808282546104459190610b25565b925050819055506104a8565b80600460003373ffffffffffffffffffffffffffffffffffffffff1673ffffffffffffffffffffffffffffffffffffffff16815260200190815260200160002060008282546104a09190610b25565b925050819055505b600560003373ffffffffffffffffffffffffffffffffffffffff1673ffffffffffffffffffffffffffffffffffffffff168152602001908152602001600020604051806080016040528083815260200186815260200185815260200184815250908060018154018082558091505060019003906000526020600020906004020160009091909190915060008201518160000155602082015181600101556040820151816002015560608201518160030155505050505050565b600660009054906101000a900473ffffffffffffffffffffffffffffffffffffffff1673ffffffffffffffffffffffffffffffffffffffff163373ffffffffffffffffffffffffffffffffffffffff16146105bb57600080fd5b346000808282546105cc9190610b25565b92505081905550565b60008060008060006001600560003373ffffffffffffffffffffffffffffffffffffffff1673ffffffffffffffffffffffffffffffffffffffff1681526020019081526020016000208054905061062c9190610a97565b9050600560003373ffffffffffffffffffffffffffffffffffffffff1673ffffffffffffffffffffffffffffffffffffffff168152602001908152602001600020818154811061067f5761067e610b7b565b5b906000526020600020906004020160000154600560003373ffffffffffffffffffffffffffffffffffffffff1673ffffffffffffffffffffffffffffffffffffffff16815260200190815260200160002082815481106106e2576106e1610b7b565b5b906000526020600020906004020160010154600560003373ffffffffffffffffffffffffffffffffffffffff1673ffffffffffffffffffffffffffffffffffffffff168152602001908152602001600020838154811061074557610744610b7b565b5b906000526020600020906004020160020154600560003373ffffffffffffffffffffffffffffffffffffffff1673ffffffffffffffffffffffffffffffffffffffff16815260200190815260200160002084815481106107a8576107a7610b7b565b5b90600052602060002090600402016003015494509450945094505090919293565b60005481565b600060025442336003546040516020016107eb93929190610c45565b6040516020818303038152906040528051906020012060001c61080e9190610cb1565b905090565b60006005841480156108255750600583145b80156108315750600582145b1561084c57601e6001546108459190610acb565b905061098a565b60068414801561085c5750600583145b80156108685750600682145b1561088357601460015461087c9190610acb565b905061098a565b6004841480156108935750600483145b801561089f5750600482145b156108ba57600f6001546108b39190610acb565b905061098a565b6003841480156108ca5750600383145b80156108d65750600382145b156108f157600c6001546108ea9190610acb565b905061098a565b6002841480156109015750600283145b801561090d5750600282145b1561092857600a6001546109219190610acb565b905061098a565b6001841480156109385750600183145b80156109445750600182145b1561095f5760056001546109589190610acb565b905061098a565b8284148061096c57508184145b8061097657508183145b1561098557600154905061098a565b600090505b9392505050565b6000819050919050565b6109a481610991565b82525050565b60006020820190506109bf600083018461099b565b92915050565b600080fd5b6109d381610991565b81146109de57600080fd5b50565b6000813590506109f0816109ca565b92915050565b600060208284031215610a0c57610a0b6109c5565b5b6000610a1a848285016109e1565b91505092915050565b6000608082019050610a38600083018761099b565b610a45602083018661099b565b610a52604083018561099b565b610a5f606083018461099b565b95945050505050565b7f4e487b7100000000000000000000000000000000000000000000000000000000600052601160045260246000fd5b6000610aa282610991565b9150610aad83610991565b925082821015610ac057610abf610a68565b5b828203905092915050565b6000610ad682610991565b9150610ae183610991565b9250817fffffffffffffffffffffffffffffffffffffffffffffffffffffffffffffffff0483118215151615610b1a57610b19610a68565b5b828202905092915050565b6000610b3082610991565b9150610b3b83610991565b9250827fffffffffffffffffffffffffffffffffffffffffffffffffffffffffffffffff03821115610b7057610b6f610a68565b5b828201905092915050565b7f4e487b7100000000000000000000000000000000000000000000000000000000600052603260045260246000fd5b6000819050919050565b610bc5610bc082610991565b610baa565b82525050565b600073ffffffffffffffffffffffffffffffffffffffff82169050919050565b6000610bf682610bcb565b9050919050565b60008160601b9050919050565b6000610c1582610bfd565b9050919050565b6000610c2782610c0a565b9050919050565b610c3f610c3a82610beb565b610c1c565b82525050565b6000610c518286610bb4565b602082019150610c618285610c2e565b601482019150610c718284610bb4565b602082019150819050949350505050565b7f4e487b7100000000000000000000000000000000000000000000000000000000600052601260045260246000fd5b6000610cbc82610991565b9150610cc783610991565b925082610cd757610cd6610c82565b5b82820690509291505056fea2646970667358221220b787f843e15e747b82524a3d3b3daa7638c76781de2cb19b6208407751f1bd8c64736f6c634300080d0033",
  "immutableReferences": {},
  "source": "// SPDX-License-Identifier: GPL-3.0\n\npragma solidity >=0.8.0;\n\ncontract Slots {\n    \n    uint public slotsBalance;\n    uint public minValue = 0.001 ether;\n    uint modulus = 6;\n    uint256 randNonce = 0;\n\n    struct Game {\n        uint result;\n        uint randNumber1;\n        uint randNumber2;\n        uint randNumber3;\n    }\n\n    mapping(address=>uint) winnerBalance;\n    mapping(address=>Game[]) gamesResult;\n\n    address owner;\n\n    constructor() {\n        owner = msg.sender;\n    }\n\n    modifier onlyOwner {\n        require(msg.sender == owner);\n        _;\n    }\n\n    function changeMinValue(uint newMinValue) public onlyOwner {\n        minValue = newMinValue * (1 ether);\n    }\n\n    function deposit() public payable onlyOwner {\n        slotsBalance += msg.value;\n    }\n\n    function getBalanceSlots() public view returns (uint) {\n        return slotsBalance;\n    }\n\n    function getPlayerBalance() public view returns (uint) {\n        return winnerBalance[msg.sender];\n    }\n\n    function getLastPlayerGame() public view returns (uint, uint, uint, uint) {\n        uint length = gamesResult[msg.sender].length - 1;\n        return (gamesResult[msg.sender][length].result, gamesResult[msg.sender][length].randNumber1, gamesResult[msg.sender][length].randNumber2, gamesResult[msg.sender][length].randNumber3);\n    }\n\n    function roll() public payable {\n        require(minValue >= msg.value);\n        uint randNumber1 = randomValue();\n        randNonce += 1;\n        uint randNumber2 = randomValue();\n        randNonce += 1;\n        uint randNumber3 = randomValue();\n        randNonce += 1;\n        uint result = calculatePrize(randNumber1, randNumber2, randNumber3);\n        if (result == 0) {\n            slotsBalance += msg.value;\n        } else {\n            winnerBalance[msg.sender] += result;\n        }\n        gamesResult[msg.sender].push(Game(result, randNumber1, randNumber2, randNumber3));\n    }\n\n    function randomValue() private view returns (uint) {\n        return uint(keccak256(abi.encodePacked(block.timestamp, msg.sender, randNonce))) % modulus;\n    }\n\n    function calculatePrize(uint rand1, uint rand2, uint rand3) private view returns(uint) {\n        if(rand1 == 5 && rand2 == 5 && rand3 == 5) {\n            return minValue * 30;\n        } else if (rand1 == 6 && rand2 == 5 && rand3 == 6) {\n            return minValue * 20;\n        } else if (rand1 == 4 && rand2 == 4 && rand3 == 4) {\n            return minValue * 15;\n        } else if (rand1 == 3 && rand2 == 3 && rand3 == 3) {\n            return minValue * 12;\n        } else if (rand1 == 2 && rand2 == 2 && rand3 == 2) {\n            return minValue * 10;\n        } else if (rand1 == 1 && rand2 == 1 && rand3 == 1) {\n            return minValue * 5;\n        } else if ((rand1 == rand2) || (rand1 == rand3) || (rand2 == rand3)) {\n            return minValue;\n        } else {\n            return 0;\n        }\n    }\n\n    function withdraw(uint amount) public {\n        require(winnerBalance[msg.sender] >= amount);\n        winnerBalance[msg.sender] -= amount;\n        slotsBalance -= amount;\n        payable(msg.sender).transfer(amount);\n    }\n}",
  "sourcePath": "/Users/sergejgustun/Documents/GitHub/trueslots/contracts/Slots.sol",
  "compiler": {
    "name": "solc",
    "version": "0.8.13+commit.abaa5c0e.Emscripten.clang"
  },
  "schemaVersion": "3.4.3",
  "updatedAt": "2022-04-07T09:39:29.379Z",
  "networkType": "ethereum",
  "devdoc": {
    "kind": "dev",
    "methods": {},
    "version": 1
  },
  "userdoc": {
    "kind": "user",
    "methods": {},
    "version": 1
  }
}