{
  "contractName": "Slots",
  "abi": [
    {
      "inputs": [],
      "stateMutability": "nonpayable",
      "type": "constructor"
    },
    {
      "inputs": [],
      "name": "minValue",
      "outputs": [
        {
          "internalType": "uint256",
          "name": "",
          "type": "uint256"
        }
      ],
      "stateMutability": "view",
      "type": "function",
      "constant": true
    },
    {
      "inputs": [],
      "name": "slotsBalance",
      "outputs": [
        {
          "internalType": "uint256",
          "name": "",
          "type": "uint256"
        }
      ],
      "stateMutability": "view",
      "type": "function",
      "constant": true
    },
    {
      "inputs": [
        {
          "internalType": "uint256",
          "name": "newMinValue",
          "type": "uint256"
        }
      ],
      "name": "changeMinValue",
      "outputs": [],
      "stateMutability": "nonpayable",
      "type": "function"
    },
    {
      "inputs": [],
      "name": "deposit",
      "outputs": [],
      "stateMutability": "payable",
      "type": "function",
      "payable": true
    },
    {
      "inputs": [],
      "name": "getBalanceSlots",
      "outputs": [
        {
          "internalType": "uint256",
          "name": "",
          "type": "uint256"
        }
      ],
      "stateMutability": "view",
      "type": "function",
      "constant": true
    },
    {
      "inputs": [],
      "name": "getPlayerBalance",
      "outputs": [
        {
          "internalType": "uint256",
          "name": "",
          "type": "uint256"
        }
      ],
      "stateMutability": "view",
      "type": "function",
      "constant": true
    },
    {
      "inputs": [],
      "name": "roll",
      "outputs": [],
      "stateMutability": "payable",
      "type": "function",
      "payable": true
    },
    {
      "inputs": [
        {
          "internalType": "uint256",
          "name": "amount",
          "type": "uint256"
        }
      ],
      "name": "withdraw",
      "outputs": [],
      "stateMutability": "nonpayable",
      "type": "function"
    }
  ],
  "bytecode": "0x608060405266038d7ea4c680006001556006600255600060035534801561002557600080fd5b5033600560006101000a81548173ffffffffffffffffffffffffffffffffffffffff021916908373ffffffffffffffffffffffffffffffffffffffff1602179055506109c4806100766000396000f3fe60806040526004361061007b5760003560e01c8063963e63c71161004e578063963e63c714610128578063cd5e3c5d14610153578063d0e30db01461015d578063d9fa844a146101675761007b565b80630b01517c1461008057806323f52256146100ab5780632e1a7d4d146100d6578063456cae18146100ff575b600080fd5b34801561008c57600080fd5b50610095610192565b6040516100a291906106ca565b60405180910390f35b3480156100b757600080fd5b506100c06101d9565b6040516100cd91906106ca565b60405180910390f35b3480156100e257600080fd5b506100fd60048036038101906100f89190610716565b6101e2565b005b34801561010b57600080fd5b5061012660048036038101906101219190610716565b6102e6565b005b34801561013457600080fd5b5061013d61035d565b60405161014a91906106ca565b60405180910390f35b61015b610363565b005b610165610475565b005b34801561017357600080fd5b5061017c6104e9565b60405161018991906106ca565b60405180910390f35b6000600460003373ffffffffffffffffffffffffffffffffffffffff1673ffffffffffffffffffffffffffffffffffffffff16815260200190815260200160002054905090565b60008054905090565b80600460003373ffffffffffffffffffffffffffffffffffffffff1673ffffffffffffffffffffffffffffffffffffffff16815260200190815260200160002054101561022e57600080fd5b80600460003373ffffffffffffffffffffffffffffffffffffffff1673ffffffffffffffffffffffffffffffffffffffff168152602001908152602001600020600082825461027d9190610772565b92505081905550806000808282546102959190610772565b925050819055503373ffffffffffffffffffffffffffffffffffffffff166108fc829081150290604051600060405180830381858888f193505050501580156102e2573d6000803e3d6000fd5b5050565b600560009054906101000a900473ffffffffffffffffffffffffffffffffffffffff1673ffffffffffffffffffffffffffffffffffffffff163373ffffffffffffffffffffffffffffffffffffffff161461034057600080fd5b670de0b6b3a76400008161035491906107a6565b60018190555050565b60015481565b34600154101561037257600080fd5b600061037c6104ef565b90506001600360008282546103919190610800565b9250508190555060006103a26104ef565b90506001600360008282546103b79190610800565b9250508190555060006103c86104ef565b90506001600360008282546103dd9190610800565b9250508190555060006103f1848484610533565b905060008103610418573460008082825461040c9190610800565b9250508190555061046f565b80600460003373ffffffffffffffffffffffffffffffffffffffff1673ffffffffffffffffffffffffffffffffffffffff16815260200190815260200160002060008282546104679190610800565b925050819055505b50505050565b600560009054906101000a900473ffffffffffffffffffffffffffffffffffffffff1673ffffffffffffffffffffffffffffffffffffffff163373ffffffffffffffffffffffffffffffffffffffff16146104cf57600080fd5b346000808282546104e09190610800565b92505081905550565b60005481565b6000600254423360035460405160200161050b939291906108f1565b6040516020818303038152906040528051906020012060001c61052e919061095d565b905090565b60006005841480156105455750600583145b80156105515750600582145b1561056c57601e60015461056591906107a6565b90506106aa565b60068414801561057c5750600583145b80156105885750600682145b156105a357601460015461059c91906107a6565b90506106aa565b6004841480156105b35750600483145b80156105bf5750600482145b156105da57600f6001546105d391906107a6565b90506106aa565b6003841480156105ea5750600383145b80156105f65750600382145b1561061157600c60015461060a91906107a6565b90506106aa565b6002841480156106215750600283145b801561062d5750600282145b1561064857600a60015461064191906107a6565b90506106aa565b6001841480156106585750600183145b80156106645750600182145b1561067f57600560015461067891906107a6565b90506106aa565b8284148061068c57508184145b8061069657508183145b156106a55760015490506106aa565b600090505b9392505050565b6000819050919050565b6106c4816106b1565b82525050565b60006020820190506106df60008301846106bb565b92915050565b600080fd5b6106f3816106b1565b81146106fe57600080fd5b50565b600081359050610710816106ea565b92915050565b60006020828403121561072c5761072b6106e5565b5b600061073a84828501610701565b91505092915050565b7f4e487b7100000000000000000000000000000000000000000000000000000000600052601160045260246000fd5b600061077d826106b1565b9150610788836106b1565b92508282101561079b5761079a610743565b5b828203905092915050565b60006107b1826106b1565b91506107bc836106b1565b9250817fffffffffffffffffffffffffffffffffffffffffffffffffffffffffffffffff04831182151516156107f5576107f4610743565b5b828202905092915050565b600061080b826106b1565b9150610816836106b1565b9250827fffffffffffffffffffffffffffffffffffffffffffffffffffffffffffffffff0382111561084b5761084a610743565b5b828201905092915050565b6000819050919050565b61087161086c826106b1565b610856565b82525050565b600073ffffffffffffffffffffffffffffffffffffffff82169050919050565b60006108a282610877565b9050919050565b60008160601b9050919050565b60006108c1826108a9565b9050919050565b60006108d3826108b6565b9050919050565b6108eb6108e682610897565b6108c8565b82525050565b60006108fd8286610860565b60208201915061090d82856108da565b60148201915061091d8284610860565b602082019150819050949350505050565b7f4e487b7100000000000000000000000000000000000000000000000000000000600052601260045260246000fd5b6000610968826106b1565b9150610973836106b1565b9250826109835761098261092e565b5b82820690509291505056fea26469706673582212202a115fa7c44605fe0e87e5c5ea68a4c4f421d47964c2a79db88112ebe590e5ea64736f6c634300080d0033",
  "immutableReferences": {},
  "source": "// SPDX-License-Identifier: GPL-3.0\n\npragma solidity >=0.8.0;\n\ncontract Slots {\n    \n    uint public slotsBalance;\n    uint public minValue = 0.001 ether;\n    uint modulus = 6;\n    uint256 randNonce = 0;\n\n    mapping(address=>uint) winnerBalance;\n\n    address owner;\n\n    constructor() {\n        owner = msg.sender;\n    }\n\n    modifier onlyOwner {\n        require(msg.sender == owner);\n        _;\n    }\n\n    function changeMinValue(uint newMinValue) public onlyOwner {\n        minValue = newMinValue * (1 ether);\n    }\n\n    function deposit() public payable onlyOwner {\n        slotsBalance += msg.value;\n    }\n\n    function getBalanceSlots() public view returns (uint) {\n        return slotsBalance;\n    }\n\n    function getPlayerBalance() public view returns (uint) {\n        return winnerBalance[msg.sender];\n    }\n\n    function roll() public payable {\n        require(minValue >= msg.value);\n        uint randNumber1 = randomValue();\n        randNonce += 1;\n        uint randNumber2 = randomValue();\n        randNonce += 1;\n        uint randNumber3 = randomValue();\n        randNonce += 1;\n        uint result = calculatePrize(randNumber1, randNumber2, randNumber3);\n        if (result == 0) {\n            slotsBalance += msg.value;\n        } else {\n            winnerBalance[msg.sender] += result;\n        }\n    }\n\n    function randomValue() private view returns (uint) {\n        return uint(keccak256(abi.encodePacked(block.timestamp, msg.sender, randNonce))) % modulus;\n    }\n\n    function calculatePrize(uint rand1, uint rand2, uint rand3) private view returns(uint) {\n        if(rand1 == 5 && rand2 == 5 && rand3 == 5) {\n            return minValue * 30;\n        } else if (rand1 == 6 && rand2 == 5 && rand3 == 6) {\n            return minValue * 20;\n        } else if (rand1 == 4 && rand2 == 4 && rand3 == 4) {\n            return minValue * 15;\n        } else if (rand1 == 3 && rand2 == 3 && rand3 == 3) {\n            return minValue * 12;\n        } else if (rand1 == 2 && rand2 == 2 && rand3 == 2) {\n            return minValue * 10;\n        } else if (rand1 == 1 && rand2 == 1 && rand3 == 1) {\n            return minValue * 5;\n        } else if ((rand1 == rand2) || (rand1 == rand3) || (rand2 == rand3)) {\n            return minValue;\n        } else {\n            return 0;\n        }\n    }\n\n    function withdraw(uint amount) public {\n        require(winnerBalance[msg.sender] >= amount);\n        winnerBalance[msg.sender] -= amount;\n        slotsBalance -= amount;\n        payable(msg.sender).transfer(amount);\n    }\n}",
  "sourcePath": "/Users/sergejgustun/Documents/GitHub/trueslots/contracts/Slots.sol",
  "compiler": {
    "name": "solc",
    "version": "0.8.13+commit.abaa5c0e.Emscripten.clang"
  },
  "schemaVersion": "3.4.3",
  "updatedAt": "2022-04-05T07:41:27.566Z",
  "networkType": "ethereum",
  "devdoc": {
    "kind": "dev",
    "methods": {},
    "version": 1
  },
  "userdoc": {
    "kind": "user",
    "methods": {},
    "version": 1
  }
}