{
  "contractName": "Slots",
  "abi": [
    {
      "inputs": [],
      "stateMutability": "nonpayable",
      "type": "constructor"
    },
    {
      "inputs": [],
      "name": "minValue",
      "outputs": [
        {
          "internalType": "uint256",
          "name": "",
          "type": "uint256"
        }
      ],
      "stateMutability": "view",
      "type": "function",
      "constant": true
    },
    {
      "inputs": [],
      "name": "slotsBalance",
      "outputs": [
        {
          "internalType": "uint256",
          "name": "",
          "type": "uint256"
        }
      ],
      "stateMutability": "view",
      "type": "function",
      "constant": true
    },
    {
      "inputs": [],
      "name": "sumPlayersMoney",
      "outputs": [
        {
          "internalType": "uint256",
          "name": "",
          "type": "uint256"
        }
      ],
      "stateMutability": "view",
      "type": "function",
      "constant": true
    },
    {
      "inputs": [
        {
          "internalType": "uint256",
          "name": "newMinValue",
          "type": "uint256"
        }
      ],
      "name": "changeMinValue",
      "outputs": [],
      "stateMutability": "nonpayable",
      "type": "function"
    },
    {
      "inputs": [],
      "name": "deposit",
      "outputs": [],
      "stateMutability": "payable",
      "type": "function",
      "payable": true
    },
    {
      "inputs": [],
      "name": "getBalanceSlots",
      "outputs": [
        {
          "internalType": "uint256",
          "name": "",
          "type": "uint256"
        }
      ],
      "stateMutability": "view",
      "type": "function",
      "constant": true
    },
    {
      "inputs": [],
      "name": "getPlayerBalance",
      "outputs": [
        {
          "internalType": "uint256",
          "name": "",
          "type": "uint256"
        }
      ],
      "stateMutability": "view",
      "type": "function",
      "constant": true
    },
    {
      "inputs": [],
      "name": "getLastPlayerGame",
      "outputs": [
        {
          "internalType": "uint256",
          "name": "",
          "type": "uint256"
        },
        {
          "internalType": "uint256",
          "name": "",
          "type": "uint256"
        },
        {
          "internalType": "uint256",
          "name": "",
          "type": "uint256"
        },
        {
          "internalType": "uint256",
          "name": "",
          "type": "uint256"
        }
      ],
      "stateMutability": "view",
      "type": "function",
      "constant": true
    },
    {
      "inputs": [],
      "name": "roll",
      "outputs": [],
      "stateMutability": "payable",
      "type": "function",
      "payable": true
    },
    {
      "inputs": [
        {
          "internalType": "uint256",
          "name": "amount",
          "type": "uint256"
        }
      ],
      "name": "withdraw",
      "outputs": [],
      "stateMutability": "nonpayable",
      "type": "function"
    },
    {
      "inputs": [
        {
          "internalType": "uint256",
          "name": "amount",
          "type": "uint256"
        }
      ],
      "name": "witdrawOwnerSlots",
      "outputs": [],
      "stateMutability": "payable",
      "type": "function",
      "payable": true
    }
  ],
  "bytecode": "0x608060405266038d7ea4c6800060015560006002556006600355600060045534801561002a57600080fd5b5033600760006101000a81548173ffffffffffffffffffffffffffffffffffffffff021916908373ffffffffffffffffffffffffffffffffffffffff160217905550610f928061007b6000396000f3fe60806040526004361061009c5760003560e01c8063ba989c3e11610064578063ba989c3e14610174578063c7465cbd1461019f578063cd5e3c5d146101bb578063d0e30db0146101c5578063d9a4802e146101cf578063d9fa844a146101fd5761009c565b80630b01517c146100a157806323f52256146100cc5780632e1a7d4d146100f7578063456cae1814610120578063963e63c714610149575b600080fd5b3480156100ad57600080fd5b506100b6610228565b6040516100c39190610bd5565b60405180910390f35b3480156100d857600080fd5b506100e161026f565b6040516100ee9190610bd5565b60405180910390f35b34801561010357600080fd5b5061011e60048036038101906101199190610c21565b610278565b005b34801561012c57600080fd5b5061014760048036038101906101429190610c21565b610395565b005b34801561015557600080fd5b5061015e61040c565b60405161016b9190610bd5565b60405180910390f35b34801561018057600080fd5b50610189610412565b6040516101969190610bd5565b60405180910390f35b6101b960048036038101906101b49190610c21565b610418565b005b6101c36104eb565b005b6101cd6106c9565b005b3480156101db57600080fd5b506101e461073d565b6040516101f49493929190610c4e565b60405180910390f35b34801561020957600080fd5b50610212610931565b60405161021f9190610bd5565b60405180910390f35b6000600560003373ffffffffffffffffffffffffffffffffffffffff1673ffffffffffffffffffffffffffffffffffffffff16815260200190815260200160002054905090565b60008054905090565b80600560003373ffffffffffffffffffffffffffffffffffffffff1673ffffffffffffffffffffffffffffffffffffffff1681526020019081526020016000205411156102c457600080fd5b80600560003373ffffffffffffffffffffffffffffffffffffffff1673ffffffffffffffffffffffffffffffffffffffff16815260200190815260200160002060008282546103139190610cc2565b925050819055508060008082825461032b9190610cc2565b9250508190555080600260008282546103449190610cc2565b925050819055503373ffffffffffffffffffffffffffffffffffffffff166108fc829081150290604051600060405180830381858888f19350505050158015610391573d6000803e3d6000fd5b5050565b600760009054906101000a900473ffffffffffffffffffffffffffffffffffffffff1673ffffffffffffffffffffffffffffffffffffffff163373ffffffffffffffffffffffffffffffffffffffff16146103ef57600080fd5b670de0b6b3a7640000816104039190610cf6565b60018190555050565b60015481565b60025481565b600760009054906101000a900473ffffffffffffffffffffffffffffffffffffffff1673ffffffffffffffffffffffffffffffffffffffff163373ffffffffffffffffffffffffffffffffffffffff161461047257600080fd5b60006002546000546104849190610cc2565b90506000811061049357600080fd5b818111156104a057600080fd5b3373ffffffffffffffffffffffffffffffffffffffff166108fc839081150290604051600060405180830381858888f193505050501580156104e6573d6000803e3d6000fd5b505050565b3460015411156104fa57600080fd5b6000610504610937565b90506001600460008282546105199190610d50565b92505081905550600061052a610937565b905060016004600082825461053f9190610d50565b925050819055506000610550610937565b90506001600460008282546105659190610d50565b925050819055506000610579848484610a3e565b9050600081036105a057346000808282546105949190610d50565b92505081905550610610565b80600560003373ffffffffffffffffffffffffffffffffffffffff1673ffffffffffffffffffffffffffffffffffffffff16815260200190815260200160002060008282546105ef9190610d50565b9250508190555080600260008282546106089190610d50565b925050819055505b600660003373ffffffffffffffffffffffffffffffffffffffff1673ffffffffffffffffffffffffffffffffffffffff168152602001908152602001600020604051806080016040528083815260200186815260200185815260200184815250908060018154018082558091505060019003906000526020600020906004020160009091909190915060008201518160000155602082015181600101556040820151816002015560608201518160030155505050505050565b600760009054906101000a900473ffffffffffffffffffffffffffffffffffffffff1673ffffffffffffffffffffffffffffffffffffffff163373ffffffffffffffffffffffffffffffffffffffff161461072357600080fd5b346000808282546107349190610d50565b92505081905550565b60008060008060006001600660003373ffffffffffffffffffffffffffffffffffffffff1673ffffffffffffffffffffffffffffffffffffffff168152602001908152602001600020805490506107949190610cc2565b9050600660003373ffffffffffffffffffffffffffffffffffffffff1673ffffffffffffffffffffffffffffffffffffffff16815260200190815260200160002081815481106107e7576107e6610da6565b5b906000526020600020906004020160000154600660003373ffffffffffffffffffffffffffffffffffffffff1673ffffffffffffffffffffffffffffffffffffffff168152602001908152602001600020828154811061084a57610849610da6565b5b906000526020600020906004020160010154600660003373ffffffffffffffffffffffffffffffffffffffff1673ffffffffffffffffffffffffffffffffffffffff16815260200190815260200160002083815481106108ad576108ac610da6565b5b906000526020600020906004020160020154600660003373ffffffffffffffffffffffffffffffffffffffff1673ffffffffffffffffffffffffffffffffffffffff16815260200190815260200160002084815481106109105761090f610da6565b5b90600052602060002090600402016003015494509450945094505090919293565b60005481565b60008043423360405160200161094d9190610e4f565b6040516020818303038152906040528051906020012060001c6109709190610e99565b4542416040516020016109839190610f05565b6040516020818303038152906040528051906020012060001c6109a69190610e99565b60045444426109b59190610d50565b6109bf9190610d50565b6109c99190610d50565b6109d39190610d50565b6109dd9190610d50565b6109e79190610d50565b6040516020016109f79190610f41565b6040516020818303038152906040528051906020012060001c905060035460035482610a239190610e99565b610a2d9190610cf6565b81610a389190610cc2565b91505090565b6000600684148015610a505750600683145b8015610a5c5750600682145b15610a77576005600154610a709190610cf6565b9050610bb5565b600584148015610a875750600583145b8015610a935750600582145b15610aae576003600154610aa79190610cf6565b9050610bb5565b600484148015610abe5750600483145b8015610aca5750600482145b15610ae5576003600154610ade9190610cf6565b9050610bb5565b600384148015610af55750600383145b8015610b015750600382145b15610b1c576003600154610b159190610cf6565b9050610bb5565b600284148015610b2c5750600283145b8015610b385750600282145b15610b53576003600154610b4c9190610cf6565b9050610bb5565b600184148015610b635750600183145b8015610b6f5750600182145b15610b8a576003600154610b839190610cf6565b9050610bb5565b82841480610b9757508184145b80610ba157508183145b15610bb0576001549050610bb5565b600090505b9392505050565b6000819050919050565b610bcf81610bbc565b82525050565b6000602082019050610bea6000830184610bc6565b92915050565b600080fd5b610bfe81610bbc565b8114610c0957600080fd5b50565b600081359050610c1b81610bf5565b92915050565b600060208284031215610c3757610c36610bf0565b5b6000610c4584828501610c0c565b91505092915050565b6000608082019050610c636000830187610bc6565b610c706020830186610bc6565b610c7d6040830185610bc6565b610c8a6060830184610bc6565b95945050505050565b7f4e487b7100000000000000000000000000000000000000000000000000000000600052601160045260246000fd5b6000610ccd82610bbc565b9150610cd883610bbc565b925082821015610ceb57610cea610c93565b5b828203905092915050565b6000610d0182610bbc565b9150610d0c83610bbc565b9250817fffffffffffffffffffffffffffffffffffffffffffffffffffffffffffffffff0483118215151615610d4557610d44610c93565b5b828202905092915050565b6000610d5b82610bbc565b9150610d6683610bbc565b9250827fffffffffffffffffffffffffffffffffffffffffffffffffffffffffffffffff03821115610d9b57610d9a610c93565b5b828201905092915050565b7f4e487b7100000000000000000000000000000000000000000000000000000000600052603260045260246000fd5b600073ffffffffffffffffffffffffffffffffffffffff82169050919050565b6000610e0082610dd5565b9050919050565b60008160601b9050919050565b6000610e1f82610e07565b9050919050565b6000610e3182610e14565b9050919050565b610e49610e4482610df5565b610e26565b82525050565b6000610e5b8284610e38565b60148201915081905092915050565b7f4e487b7100000000000000000000000000000000000000000000000000000000600052601260045260246000fd5b6000610ea482610bbc565b9150610eaf83610bbc565b925082610ebf57610ebe610e6a565b5b828204905092915050565b6000610ed582610dd5565b9050919050565b6000610ee782610e14565b9050919050565b610eff610efa82610eca565b610edc565b82525050565b6000610f118284610eee565b60148201915081905092915050565b6000819050919050565b610f3b610f3682610bbc565b610f20565b82525050565b6000610f4d8284610f2a565b6020820191508190509291505056fea2646970667358221220abd2dd222ba9156920d1aa813ec7695fd3d154724f325c4e6ecfeca55828406d64736f6c634300080d0033",
  "immutableReferences": {},
  "source": "// SPDX-License-Identifier: GPL-3.0\n\npragma solidity >=0.8.0;\n\ncontract Slots {\n    uint256 public slotsBalance;\n    uint256 public minValue = 0.001 ether;\n    uint256 public sumPlayersMoney = 0;\n    uint256 modulus = 6;\n    uint256 randNonce = 0;\n\n    struct Game {\n        uint256 result;\n        uint256 randNumber1;\n        uint256 randNumber2;\n        uint256 randNumber3;\n    }\n\n    mapping(address => uint256) winnerBalance;\n    mapping(address => Game[]) gamesResult;\n\n    address owner;\n\n    constructor() {\n        owner = msg.sender;\n    }\n\n    modifier onlyOwner() {\n        require(msg.sender == owner);\n        _;\n    }\n\n    function changeMinValue(uint256 newMinValue) public onlyOwner {\n        minValue = newMinValue * (1 ether);\n    }\n\n    function deposit() public payable onlyOwner {\n        slotsBalance += msg.value;\n    }\n\n    function getBalanceSlots() public view returns (uint256) {\n        return slotsBalance;\n    }\n\n    function getPlayerBalance() public view returns (uint256) {\n        return winnerBalance[msg.sender];\n    }\n\n    function getLastPlayerGame()\n        public\n        view\n        returns (\n            uint256,\n            uint256,\n            uint256,\n            uint256\n        )\n    {\n        uint256 length = gamesResult[msg.sender].length - 1;\n        return (\n            gamesResult[msg.sender][length].result,\n            gamesResult[msg.sender][length].randNumber1,\n            gamesResult[msg.sender][length].randNumber2,\n            gamesResult[msg.sender][length].randNumber3\n        );\n    }\n\n    function roll() public payable {\n        require(minValue <= msg.value);\n        uint256 randNumber1 = randomValue();\n        randNonce += 1;\n        uint256 randNumber2 = randomValue();\n        randNonce += 1;\n        uint256 randNumber3 = randomValue();\n        randNonce += 1;\n        uint256 result = calculatePrize(randNumber1, randNumber2, randNumber3);\n        if (result == 0) {\n            slotsBalance += msg.value;\n        } else {\n            winnerBalance[msg.sender] += result;\n            sumPlayersMoney += result;\n        }\n        gamesResult[msg.sender].push(\n            Game(result, randNumber1, randNumber2, randNumber3)\n        );\n    }\n\n    function randomValue() private view returns (uint256) {\n        uint256 seed = uint256(\n            keccak256(\n                abi.encodePacked(\n                    block.timestamp +\n                        block.difficulty +\n                        randNonce +\n                        ((\n                            uint256(keccak256(abi.encodePacked(block.coinbase)))\n                        ) / (block.timestamp)) +\n                        block.gaslimit +\n                        ((uint256(keccak256(abi.encodePacked(msg.sender)))) /\n                            (block.timestamp)) +\n                        block.number\n                )\n            )\n        );\n\n        return (seed - ((seed / modulus) * modulus));\n    }\n\n    function calculatePrize(\n        uint256 rand1,\n        uint256 rand2,\n        uint256 rand3\n    ) private view returns (uint256) {\n        if (rand1 == 6 && rand2 == 6 && rand3 == 6) {\n            return minValue * 5;\n        } else if (rand1 == 5 && rand2 == 5 && rand3 == 5) {\n            return minValue * 3;\n        } else if (rand1 == 4 && rand2 == 4 && rand3 == 4) {\n            return minValue * 3;\n        } else if (rand1 == 3 && rand2 == 3 && rand3 == 3) {\n            return minValue * 3;\n        } else if (rand1 == 2 && rand2 == 2 && rand3 == 2) {\n            return minValue * 3;\n        } else if (rand1 == 1 && rand2 == 1 && rand3 == 1) {\n            return minValue * 3;\n        } else if ((rand1 == rand2) || (rand1 == rand3) || (rand2 == rand3)) {\n            return minValue;\n        } else {\n            return 0;\n        }\n    }\n\n    function withdraw(uint256 amount) public {\n        require(winnerBalance[msg.sender] <= amount);\n        winnerBalance[msg.sender] -= amount;\n        slotsBalance -= amount;\n        sumPlayersMoney -= amount;\n        payable(msg.sender).transfer(amount);\n    }\n\n    function witdrawOwnerSlots(uint256 amount) public payable onlyOwner {\n        uint256 allowWithdrawlMoney = slotsBalance - sumPlayersMoney;\n        require(allowWithdrawlMoney < 0);\n        require(allowWithdrawlMoney <= amount);\n        payable(msg.sender).transfer(amount);\n    }\n}\n",
  "sourcePath": "/Users/sergejgustun/Documents/GitHub/trueslots/contracts/Slots.sol",
  "compiler": {
    "name": "solc",
    "version": "0.8.13+commit.abaa5c0e.Emscripten.clang"
  },
  "schemaVersion": "3.4.3",
  "updatedAt": "2022-04-11T08:23:13.556Z",
  "networkType": "ethereum",
  "devdoc": {
    "kind": "dev",
    "methods": {},
    "version": 1
  },
  "userdoc": {
    "kind": "user",
    "methods": {},
    "version": 1
  }
}